:03000000020502F4
:0100030032CA
:01000B0032C2
:0100130032BA
:01001B0032B2
:0100230032AA
:03005B000203DAC3
:10005E00C000C001790378C40000D8FCD9F8D001E3
:10006E00D00022C000C001798A78B4D8FED9FADA5D
:10007E00F6D001D00022D29512005EC29522A2E7E0
:10008E0092A5A2E692A4A2E592A3A2E492A21200E5
:10009E008412005EA2E392A5A2E292A4A2E192A330
:1000AE00A2E092A212008422D29702008CC2970282
:1000BE00008CC295C296C0027A28120071D00274CA
:1000CE00331200BB74331200BB74321200BB74289F
:1000DE001200BB740C1200BB74011200BBC0027A7A
:1000EE0002120071D00222E49360061200B6A380C1
:1000FE00F622444044800200BBC0E0E8C4540F44E2
:10010E00301200B6E8540F44301200B6D0E022C0D0
:10011E00E0C0D0C000C001C002E4F543F544F5458F
:10012E00F546F5477A20E536A2E779047833E633CB
:10013E00F608D9FA79057843C0D0E6243320E702D1
:10014E0024D020E30224FDD0D033F608D9EADAD643
:10015E00D002D001D000D0D0D0E022C0E0C0D0C0BC
:10016E0000C001C0027A207905C37847E613C0D0DB
:10017E0030E70224D030E30224FDF618D0D0D9ECBB
:10018E0079047836E613F618D9FADADBD002D00104
:10019E00D000D0D0D0E022C0E0C0D0E5332537F576
:1001AE0033E5343538F534E5353539F535E536355D
:1001BE003AF536D0D0D0E022C0E0C0D0C3E53395BA
:1001CE0037F533E5349538F534E5359539F535E5BC
:1001DE0036953AF536D0D0D0E022C0E0C0D0C3E597
:1001EE00339537E5349538E5359539E536953A92B8
:1001FE0000D0D0D0E022C0E0C0D0C3E5379533E5C3
:10020E00389534E5399535E53A95369200D0D0D00B
:10021E00E022C0E0C0D0C200C3E53795337014E5CC
:10022E00389534700EE53995357008E53A95367087
:10023E0002D200D0D0D0E02212022020000302020F
:10024E0004221202202000030201E822C0E0C0F0C6
:10025E00C0D0C000C001C002C003E5338537F0A492
:10026E00F8A9F0E5348537F0A429F9E435F0FAE57C
:10027E00338538F0A429F9E5F03AFAE433FBE53595
:10028E008537F0A42AFAE5F03BFBE5348538F0A477
:10029E002AFAE5F03BFBE5338539F0A42AFAE5F0BE
:1002AE003BFBE5368537F0A42BFBE5358538F0A40E
:1002BE002BFBE5348539F0A42BFBE533853AF0A40E
:1002CE002BFB8B368A3589348833D003D002D0018C
:1002DE00D000D0D0D0F0D0E022C0E0C0D0C000C05E
:1002EE0001C002C003C0047C20E4F8F9FAFBC3E5A8
:1002FE003333F533E53433F534E53533F535E5365B
:10030E0033F536E833F8E933F9EA33FAEB33FBC366
:10031E00E89537E99538EA9539EB953A4013E89523
:10032E0037F8E99538F9EA9539FAEB953AFB433304
:10033E0001DCBBD004D003D002D001D000D0D0D08D
:10034E00E0224C434420495320574F524B494E47CD
:10035E000043617061636974616E63653A00704653
:10036E0000535045414B4552204953204F4E0020DB
:10037E00202020202020202020202020202000E4CB
:10038E00780079007A007B10E58A33F58AE58C33A4
:10039E00F58CE838D4F8E939D4F9EA3AD4FADBE83E
:1003AE0022EA540F44301200B6E9C4540F443012FE
:1003BE0000B6E9540F44301200B6E8C4540F44306E
:1003CE001200B6E8540F44301200B62275A700C2D0
:1003DE00CFC0E0C0D0E53045314532602974FF15FD
:1003EE0030B530071531B531021532D2A012042FB7
:1003FE0075A730C0E0C454F0F584D0E0C4540FF5B6
:10040E008575A7008006C2CAD283C2A0D0D0D0E024
:10041E003210990280FBF5992210980280FBE59923
:10042E0022F5A330FFFDC2FFE5A322C2837406129C
:10043E00042FD28322C283740512042F7455120422
:10044E002FD28320E0EF227597DE7597AD75FF8072
:10045E0075EF0675A71075C12075A70075A90075F3
:10046E00A900E5A930E7FB75A90375A903E5A93035
:10047E00E7FB75A70053F4FE43B00175A41D75E1AB
:10048E000375E21075E340759810758DE6858D8BBA
:10049E0053890F438920D28ED29975A730758888DB
:1004AE0075980075A22275918075920275840075FB
:1004BE00850875A70075A20075A14075F801D28355
:1004CE00C2A075C800438E1075CA3F75CBF375CFA9
:1004DE00FF75CEFFD2AD75A70075D408E58954F02F
:1004EE004405F589D2AF227A9979FF78FFD8FED9E3
:1004FE00FADAF62275817F1204551200C0C201C0CD
:10050E00E0740114120102D0E0C083C082C0E090FA
:10051E0003501200F5D0E0D082D0831204F51204FD
:10052E00F51204F51204F51204F5C0E0740114126C
:10053E000102D0E0C083C082C0E090037D1200F5BE
:10054E00D0E0D082D083C0E0740114120102D0E05A
:10055E00C083C082C0E090035F1200F5D0E0D0826D
:10056E00D083C0E0740B14120100D0E0C083C082AF
:10057E00C0E090036C1200F5D0E0D082D083C28C24
:10058E00758A00758C00D28C1204F5C28C7533906E
:10059E007534007535007536007537A0753886755B
:1005AE003901753A0012025A75373F7538007539A0
:1005BE0000753A001202E77537E875380375390091
:1005CE00753A0012025A858A37858C38753900754E
:1005DE003A001202E785338A85348CC0E074051424
:1005EE00120100D0E012038D1203AF75370C75386F
:1005FE0000753900753A001204F51204F51204F56F
:10060E0020987220B7FA30B7FDC0E07401141201C1
:10061E0002D0E0C083C082C0E090036F1200F5D01C
:10062E00E0D082D083C0E0740114120100D0E0C08B
:10063E0083C082C0E090036F1200F5D0E0D082D06C
:10064E0083C2CAD283C2A0C283740312042F740061
:10065E0012042F740012042F740012042F7400124F
:10066E00042F75323F7531FF7530FFD2A0D2CA020A
:10067E00060E02058C120427B42385C2CAD283C289
:04068E00A01204278B
:00000001FF
